{
  "address": "0x6C81b826B3975182C959036B27584f63f6B8B08a",
  "abi": [
    {
      "inputs": [],
      "stateMutability": "nonpayable",
      "type": "constructor"
    },
    {
      "anonymous": false,
      "inputs": [
        {
          "indexed": true,
          "internalType": "address",
          "name": "previousOwner",
          "type": "address"
        },
        {
          "indexed": true,
          "internalType": "address",
          "name": "newOwner",
          "type": "address"
        }
      ],
      "name": "OwnershipTransferred",
      "type": "event"
    },
    {
      "inputs": [
        {
          "components": [
            {
              "internalType": "address",
              "name": "enforcer",
              "type": "address"
            },
            {
              "internalType": "bytes",
              "name": "terms",
              "type": "bytes"
            }
          ],
          "internalType": "struct Caveat[]",
          "name": "_input",
          "type": "tuple[]"
        }
      ],
      "name": "GET_CAVEAT_ARRAY_PACKETHASH",
      "outputs": [
        {
          "internalType": "bytes32",
          "name": "",
          "type": "bytes32"
        }
      ],
      "stateMutability": "pure",
      "type": "function"
    },
    {
      "inputs": [
        {
          "components": [
            {
              "internalType": "address",
              "name": "enforcer",
              "type": "address"
            },
            {
              "internalType": "bytes",
              "name": "terms",
              "type": "bytes"
            }
          ],
          "internalType": "struct Caveat",
          "name": "_input",
          "type": "tuple"
        }
      ],
      "name": "GET_CAVEAT_PACKETHASH",
      "outputs": [
        {
          "internalType": "bytes32",
          "name": "",
          "type": "bytes32"
        }
      ],
      "stateMutability": "pure",
      "type": "function"
    },
    {
      "inputs": [
        {
          "components": [
            {
              "internalType": "address",
              "name": "delegate",
              "type": "address"
            },
            {
              "internalType": "bytes32",
              "name": "authority",
              "type": "bytes32"
            },
            {
              "components": [
                {
                  "internalType": "address",
                  "name": "enforcer",
                  "type": "address"
                },
                {
                  "internalType": "bytes",
                  "name": "terms",
                  "type": "bytes"
                }
              ],
              "internalType": "struct Caveat[]",
              "name": "caveats",
              "type": "tuple[]"
            }
          ],
          "internalType": "struct Delegation",
          "name": "_input",
          "type": "tuple"
        }
      ],
      "name": "GET_DELEGATION_PACKETHASH",
      "outputs": [
        {
          "internalType": "bytes32",
          "name": "",
          "type": "bytes32"
        }
      ],
      "stateMutability": "pure",
      "type": "function"
    },
    {
      "inputs": [
        {
          "components": [
            {
              "components": [
                {
                  "components": [
                    {
                      "internalType": "address",
                      "name": "to",
                      "type": "address"
                    },
                    {
                      "internalType": "uint256",
                      "name": "gasLimit",
                      "type": "uint256"
                    },
                    {
                      "internalType": "bytes",
                      "name": "data",
                      "type": "bytes"
                    }
                  ],
                  "internalType": "struct Transaction",
                  "name": "transaction",
                  "type": "tuple"
                },
                {
                  "components": [
                    {
                      "components": [
                        {
                          "internalType": "address",
                          "name": "delegate",
                          "type": "address"
                        },
                        {
                          "internalType": "bytes32",
                          "name": "authority",
                          "type": "bytes32"
                        },
                        {
                          "components": [
                            {
                              "internalType": "address",
                              "name": "enforcer",
                              "type": "address"
                            },
                            {
                              "internalType": "bytes",
                              "name": "terms",
                              "type": "bytes"
                            }
                          ],
                          "internalType": "struct Caveat[]",
                          "name": "caveats",
                          "type": "tuple[]"
                        }
                      ],
                      "internalType": "struct Delegation",
                      "name": "delegation",
                      "type": "tuple"
                    },
                    {
                      "internalType": "bytes",
                      "name": "signature",
                      "type": "bytes"
                    }
                  ],
                  "internalType": "struct SignedDelegation[]",
                  "name": "authority",
                  "type": "tuple[]"
                }
              ],
              "internalType": "struct Invocation[]",
              "name": "batch",
              "type": "tuple[]"
            },
            {
              "components": [
                {
                  "internalType": "uint256",
                  "name": "nonce",
                  "type": "uint256"
                },
                {
                  "internalType": "uint256",
                  "name": "queue",
                  "type": "uint256"
                }
              ],
              "internalType": "struct ReplayProtection",
              "name": "replayProtection",
              "type": "tuple"
            }
          ],
          "internalType": "struct Invocations",
          "name": "_input",
          "type": "tuple"
        }
      ],
      "name": "GET_INVOCATIONS_PACKETHASH",
      "outputs": [
        {
          "internalType": "bytes32",
          "name": "",
          "type": "bytes32"
        }
      ],
      "stateMutability": "pure",
      "type": "function"
    },
    {
      "inputs": [
        {
          "components": [
            {
              "components": [
                {
                  "internalType": "address",
                  "name": "to",
                  "type": "address"
                },
                {
                  "internalType": "uint256",
                  "name": "gasLimit",
                  "type": "uint256"
                },
                {
                  "internalType": "bytes",
                  "name": "data",
                  "type": "bytes"
                }
              ],
              "internalType": "struct Transaction",
              "name": "transaction",
              "type": "tuple"
            },
            {
              "components": [
                {
                  "components": [
                    {
                      "internalType": "address",
                      "name": "delegate",
                      "type": "address"
                    },
                    {
                      "internalType": "bytes32",
                      "name": "authority",
                      "type": "bytes32"
                    },
                    {
                      "components": [
                        {
                          "internalType": "address",
                          "name": "enforcer",
                          "type": "address"
                        },
                        {
                          "internalType": "bytes",
                          "name": "terms",
                          "type": "bytes"
                        }
                      ],
                      "internalType": "struct Caveat[]",
                      "name": "caveats",
                      "type": "tuple[]"
                    }
                  ],
                  "internalType": "struct Delegation",
                  "name": "delegation",
                  "type": "tuple"
                },
                {
                  "internalType": "bytes",
                  "name": "signature",
                  "type": "bytes"
                }
              ],
              "internalType": "struct SignedDelegation[]",
              "name": "authority",
              "type": "tuple[]"
            }
          ],
          "internalType": "struct Invocation[]",
          "name": "_input",
          "type": "tuple[]"
        }
      ],
      "name": "GET_INVOCATION_ARRAY_PACKETHASH",
      "outputs": [
        {
          "internalType": "bytes32",
          "name": "",
          "type": "bytes32"
        }
      ],
      "stateMutability": "pure",
      "type": "function"
    },
    {
      "inputs": [
        {
          "components": [
            {
              "components": [
                {
                  "internalType": "address",
                  "name": "to",
                  "type": "address"
                },
                {
                  "internalType": "uint256",
                  "name": "gasLimit",
                  "type": "uint256"
                },
                {
                  "internalType": "bytes",
                  "name": "data",
                  "type": "bytes"
                }
              ],
              "internalType": "struct Transaction",
              "name": "transaction",
              "type": "tuple"
            },
            {
              "components": [
                {
                  "components": [
                    {
                      "internalType": "address",
                      "name": "delegate",
                      "type": "address"
                    },
                    {
                      "internalType": "bytes32",
                      "name": "authority",
                      "type": "bytes32"
                    },
                    {
                      "components": [
                        {
                          "internalType": "address",
                          "name": "enforcer",
                          "type": "address"
                        },
                        {
                          "internalType": "bytes",
                          "name": "terms",
                          "type": "bytes"
                        }
                      ],
                      "internalType": "struct Caveat[]",
                      "name": "caveats",
                      "type": "tuple[]"
                    }
                  ],
                  "internalType": "struct Delegation",
                  "name": "delegation",
                  "type": "tuple"
                },
                {
                  "internalType": "bytes",
                  "name": "signature",
                  "type": "bytes"
                }
              ],
              "internalType": "struct SignedDelegation[]",
              "name": "authority",
              "type": "tuple[]"
            }
          ],
          "internalType": "struct Invocation",
          "name": "_input",
          "type": "tuple"
        }
      ],
      "name": "GET_INVOCATION_PACKETHASH",
      "outputs": [
        {
          "internalType": "bytes32",
          "name": "",
          "type": "bytes32"
        }
      ],
      "stateMutability": "pure",
      "type": "function"
    },
    {
      "inputs": [
        {
          "components": [
            {
              "internalType": "uint256",
              "name": "nonce",
              "type": "uint256"
            },
            {
              "internalType": "uint256",
              "name": "queue",
              "type": "uint256"
            }
          ],
          "internalType": "struct ReplayProtection",
          "name": "_input",
          "type": "tuple"
        }
      ],
      "name": "GET_REPLAYPROTECTION_PACKETHASH",
      "outputs": [
        {
          "internalType": "bytes32",
          "name": "",
          "type": "bytes32"
        }
      ],
      "stateMutability": "pure",
      "type": "function"
    },
    {
      "inputs": [
        {
          "components": [
            {
              "components": [
                {
                  "internalType": "address",
                  "name": "delegate",
                  "type": "address"
                },
                {
                  "internalType": "bytes32",
                  "name": "authority",
                  "type": "bytes32"
                },
                {
                  "components": [
                    {
                      "internalType": "address",
                      "name": "enforcer",
                      "type": "address"
                    },
                    {
                      "internalType": "bytes",
                      "name": "terms",
                      "type": "bytes"
                    }
                  ],
                  "internalType": "struct Caveat[]",
                  "name": "caveats",
                  "type": "tuple[]"
                }
              ],
              "internalType": "struct Delegation",
              "name": "delegation",
              "type": "tuple"
            },
            {
              "internalType": "bytes",
              "name": "signature",
              "type": "bytes"
            }
          ],
          "internalType": "struct SignedDelegation[]",
          "name": "_input",
          "type": "tuple[]"
        }
      ],
      "name": "GET_SIGNEDDELEGATION_ARRAY_PACKETHASH",
      "outputs": [
        {
          "internalType": "bytes32",
          "name": "",
          "type": "bytes32"
        }
      ],
      "stateMutability": "pure",
      "type": "function"
    },
    {
      "inputs": [
        {
          "components": [
            {
              "components": [
                {
                  "internalType": "address",
                  "name": "delegate",
                  "type": "address"
                },
                {
                  "internalType": "bytes32",
                  "name": "authority",
                  "type": "bytes32"
                },
                {
                  "components": [
                    {
                      "internalType": "address",
                      "name": "enforcer",
                      "type": "address"
                    },
                    {
                      "internalType": "bytes",
                      "name": "terms",
                      "type": "bytes"
                    }
                  ],
                  "internalType": "struct Caveat[]",
                  "name": "caveats",
                  "type": "tuple[]"
                }
              ],
              "internalType": "struct Delegation",
              "name": "delegation",
              "type": "tuple"
            },
            {
              "internalType": "bytes",
              "name": "signature",
              "type": "bytes"
            }
          ],
          "internalType": "struct SignedDelegation",
          "name": "_input",
          "type": "tuple"
        }
      ],
      "name": "GET_SIGNEDDELEGATION_PACKETHASH",
      "outputs": [
        {
          "internalType": "bytes32",
          "name": "",
          "type": "bytes32"
        }
      ],
      "stateMutability": "pure",
      "type": "function"
    },
    {
      "inputs": [
        {
          "components": [
            {
              "internalType": "address",
              "name": "to",
              "type": "address"
            },
            {
              "internalType": "uint256",
              "name": "gasLimit",
              "type": "uint256"
            },
            {
              "internalType": "bytes",
              "name": "data",
              "type": "bytes"
            }
          ],
          "internalType": "struct Transaction",
          "name": "_input",
          "type": "tuple"
        }
      ],
      "name": "GET_TRANSACTION_PACKETHASH",
      "outputs": [
        {
          "internalType": "bytes32",
          "name": "",
          "type": "bytes32"
        }
      ],
      "stateMutability": "pure",
      "type": "function"
    },
    {
      "inputs": [
        {
          "internalType": "address",
          "name": "_token",
          "type": "address"
        },
        {
          "internalType": "address",
          "name": "_from",
          "type": "address"
        },
        {
          "internalType": "uint256",
          "name": "_amount",
          "type": "uint256"
        },
        {
          "internalType": "uint256",
          "name": "_deadline",
          "type": "uint256"
        },
        {
          "internalType": "uint8",
          "name": "v",
          "type": "uint8"
        },
        {
          "internalType": "bytes32",
          "name": "r",
          "type": "bytes32"
        },
        {
          "internalType": "bytes32",
          "name": "s",
          "type": "bytes32"
        }
      ],
      "name": "approveTransferProxy",
      "outputs": [],
      "stateMutability": "nonpayable",
      "type": "function"
    },
    {
      "inputs": [
        {
          "components": [
            {
              "components": [
                {
                  "internalType": "address",
                  "name": "to",
                  "type": "address"
                },
                {
                  "internalType": "uint256",
                  "name": "gasLimit",
                  "type": "uint256"
                },
                {
                  "internalType": "bytes",
                  "name": "data",
                  "type": "bytes"
                }
              ],
              "internalType": "struct Transaction",
              "name": "transaction",
              "type": "tuple"
            },
            {
              "components": [
                {
                  "components": [
                    {
                      "internalType": "address",
                      "name": "delegate",
                      "type": "address"
                    },
                    {
                      "internalType": "bytes32",
                      "name": "authority",
                      "type": "bytes32"
                    },
                    {
                      "components": [
                        {
                          "internalType": "address",
                          "name": "enforcer",
                          "type": "address"
                        },
                        {
                          "internalType": "bytes",
                          "name": "terms",
                          "type": "bytes"
                        }
                      ],
                      "internalType": "struct Caveat[]",
                      "name": "caveats",
                      "type": "tuple[]"
                    }
                  ],
                  "internalType": "struct Delegation",
                  "name": "delegation",
                  "type": "tuple"
                },
                {
                  "internalType": "bytes",
                  "name": "signature",
                  "type": "bytes"
                }
              ],
              "internalType": "struct SignedDelegation[]",
              "name": "authority",
              "type": "tuple[]"
            }
          ],
          "internalType": "struct Invocation[]",
          "name": "batch",
          "type": "tuple[]"
        }
      ],
      "name": "contractInvoke",
      "outputs": [
        {
          "internalType": "bool",
          "name": "",
          "type": "bool"
        }
      ],
      "stateMutability": "nonpayable",
      "type": "function"
    },
    {
      "inputs": [],
      "name": "domainHash",
      "outputs": [
        {
          "internalType": "bytes32",
          "name": "",
          "type": "bytes32"
        }
      ],
      "stateMutability": "view",
      "type": "function"
    },
    {
      "inputs": [
        {
          "components": [
            {
              "internalType": "address",
              "name": "delegate",
              "type": "address"
            },
            {
              "internalType": "bytes32",
              "name": "authority",
              "type": "bytes32"
            },
            {
              "components": [
                {
                  "internalType": "address",
                  "name": "enforcer",
                  "type": "address"
                },
                {
                  "internalType": "bytes",
                  "name": "terms",
                  "type": "bytes"
                }
              ],
              "internalType": "struct Caveat[]",
              "name": "caveats",
              "type": "tuple[]"
            }
          ],
          "internalType": "struct Delegation",
          "name": "delegation",
          "type": "tuple"
        }
      ],
      "name": "getDelegationTypedDataHash",
      "outputs": [
        {
          "internalType": "bytes32",
          "name": "",
          "type": "bytes32"
        }
      ],
      "stateMutability": "view",
      "type": "function"
    },
    {
      "inputs": [
        {
          "internalType": "string",
          "name": "contractName",
          "type": "string"
        },
        {
          "internalType": "string",
          "name": "version",
          "type": "string"
        },
        {
          "internalType": "uint256",
          "name": "chainId",
          "type": "uint256"
        },
        {
          "internalType": "address",
          "name": "verifyingContract",
          "type": "address"
        }
      ],
      "name": "getEIP712DomainHash",
      "outputs": [
        {
          "internalType": "bytes32",
          "name": "",
          "type": "bytes32"
        }
      ],
      "stateMutability": "pure",
      "type": "function"
    },
    {
      "inputs": [
        {
          "components": [
            {
              "internalType": "address",
              "name": "delegate",
              "type": "address"
            },
            {
              "internalType": "bytes32",
              "name": "authority",
              "type": "bytes32"
            },
            {
              "components": [
                {
                  "internalType": "address",
                  "name": "enforcer",
                  "type": "address"
                },
                {
                  "internalType": "bytes",
                  "name": "terms",
                  "type": "bytes"
                }
              ],
              "internalType": "struct Caveat[]",
              "name": "caveats",
              "type": "tuple[]"
            }
          ],
          "internalType": "struct Delegation",
          "name": "_delegation",
          "type": "tuple"
        },
        {
          "internalType": "bytes32",
          "name": "_domainHash",
          "type": "bytes32"
        }
      ],
      "name": "getExternalDelegationTypedDataHash",
      "outputs": [
        {
          "internalType": "bytes32",
          "name": "sigHash",
          "type": "bytes32"
        }
      ],
      "stateMutability": "pure",
      "type": "function"
    },
    {
      "inputs": [
        {
          "components": [
            {
              "components": [
                {
                  "components": [
                    {
                      "internalType": "address",
                      "name": "to",
                      "type": "address"
                    },
                    {
                      "internalType": "uint256",
                      "name": "gasLimit",
                      "type": "uint256"
                    },
                    {
                      "internalType": "bytes",
                      "name": "data",
                      "type": "bytes"
                    }
                  ],
                  "internalType": "struct Transaction",
                  "name": "transaction",
                  "type": "tuple"
                },
                {
                  "components": [
                    {
                      "components": [
                        {
                          "internalType": "address",
                          "name": "delegate",
                          "type": "address"
                        },
                        {
                          "internalType": "bytes32",
                          "name": "authority",
                          "type": "bytes32"
                        },
                        {
                          "components": [
                            {
                              "internalType": "address",
                              "name": "enforcer",
                              "type": "address"
                            },
                            {
                              "internalType": "bytes",
                              "name": "terms",
                              "type": "bytes"
                            }
                          ],
                          "internalType": "struct Caveat[]",
                          "name": "caveats",
                          "type": "tuple[]"
                        }
                      ],
                      "internalType": "struct Delegation",
                      "name": "delegation",
                      "type": "tuple"
                    },
                    {
                      "internalType": "bytes",
                      "name": "signature",
                      "type": "bytes"
                    }
                  ],
                  "internalType": "struct SignedDelegation[]",
                  "name": "authority",
                  "type": "tuple[]"
                }
              ],
              "internalType": "struct Invocation[]",
              "name": "batch",
              "type": "tuple[]"
            },
            {
              "components": [
                {
                  "internalType": "uint256",
                  "name": "nonce",
                  "type": "uint256"
                },
                {
                  "internalType": "uint256",
                  "name": "queue",
                  "type": "uint256"
                }
              ],
              "internalType": "struct ReplayProtection",
              "name": "replayProtection",
              "type": "tuple"
            }
          ],
          "internalType": "struct Invocations",
          "name": "invocations",
          "type": "tuple"
        }
      ],
      "name": "getInvocationsTypedDataHash",
      "outputs": [
        {
          "internalType": "bytes32",
          "name": "",
          "type": "bytes32"
        }
      ],
      "stateMutability": "view",
      "type": "function"
    },
    {
      "inputs": [
        {
          "internalType": "address",
          "name": "intendedSender",
          "type": "address"
        },
        {
          "internalType": "uint256",
          "name": "queue",
          "type": "uint256"
        }
      ],
      "name": "getNonce",
      "outputs": [
        {
          "internalType": "uint256",
          "name": "",
          "type": "uint256"
        }
      ],
      "stateMutability": "view",
      "type": "function"
    },
    {
      "inputs": [
        {
          "components": [
            {
              "components": [
                {
                  "components": [
                    {
                      "components": [
                        {
                          "internalType": "address",
                          "name": "to",
                          "type": "address"
                        },
                        {
                          "internalType": "uint256",
                          "name": "gasLimit",
                          "type": "uint256"
                        },
                        {
                          "internalType": "bytes",
                          "name": "data",
                          "type": "bytes"
                        }
                      ],
                      "internalType": "struct Transaction",
                      "name": "transaction",
                      "type": "tuple"
                    },
                    {
                      "components": [
                        {
                          "components": [
                            {
                              "internalType": "address",
                              "name": "delegate",
                              "type": "address"
                            },
                            {
                              "internalType": "bytes32",
                              "name": "authority",
                              "type": "bytes32"
                            },
                            {
                              "components": [
                                {
                                  "internalType": "address",
                                  "name": "enforcer",
                                  "type": "address"
                                },
                                {
                                  "internalType": "bytes",
                                  "name": "terms",
                                  "type": "bytes"
                                }
                              ],
                              "internalType": "struct Caveat[]",
                              "name": "caveats",
                              "type": "tuple[]"
                            }
                          ],
                          "internalType": "struct Delegation",
                          "name": "delegation",
                          "type": "tuple"
                        },
                        {
                          "internalType": "bytes",
                          "name": "signature",
                          "type": "bytes"
                        }
                      ],
                      "internalType": "struct SignedDelegation[]",
                      "name": "authority",
                      "type": "tuple[]"
                    }
                  ],
                  "internalType": "struct Invocation[]",
                  "name": "batch",
                  "type": "tuple[]"
                },
                {
                  "components": [
                    {
                      "internalType": "uint256",
                      "name": "nonce",
                      "type": "uint256"
                    },
                    {
                      "internalType": "uint256",
                      "name": "queue",
                      "type": "uint256"
                    }
                  ],
                  "internalType": "struct ReplayProtection",
                  "name": "replayProtection",
                  "type": "tuple"
                }
              ],
              "internalType": "struct Invocations",
              "name": "invocations",
              "type": "tuple"
            },
            {
              "internalType": "bytes",
              "name": "signature",
              "type": "bytes"
            }
          ],
          "internalType": "struct SignedInvocation[]",
          "name": "signedInvocations",
          "type": "tuple[]"
        }
      ],
      "name": "invoke",
      "outputs": [
        {
          "internalType": "bool",
          "name": "success",
          "type": "bool"
        }
      ],
      "stateMutability": "nonpayable",
      "type": "function"
    },
    {
      "inputs": [
        {
          "components": [
            {
              "components": [
                {
                  "internalType": "address",
                  "name": "delegate",
                  "type": "address"
                },
                {
                  "internalType": "bytes32",
                  "name": "authority",
                  "type": "bytes32"
                },
                {
                  "components": [
                    {
                      "internalType": "address",
                      "name": "enforcer",
                      "type": "address"
                    },
                    {
                      "internalType": "bytes",
                      "name": "terms",
                      "type": "bytes"
                    }
                  ],
                  "internalType": "struct Caveat[]",
                  "name": "caveats",
                  "type": "tuple[]"
                }
              ],
              "internalType": "struct Delegation",
              "name": "delegation",
              "type": "tuple"
            },
            {
              "internalType": "bytes",
              "name": "signature",
              "type": "bytes"
            }
          ],
          "internalType": "struct SignedDelegation",
          "name": "_signedDelegation",
          "type": "tuple"
        }
      ],
      "name": "isRevoked",
      "outputs": [
        {
          "internalType": "bool",
          "name": "revoked",
          "type": "bool"
        }
      ],
      "stateMutability": "view",
      "type": "function"
    },
    {
      "inputs": [],
      "name": "owner",
      "outputs": [
        {
          "internalType": "address",
          "name": "",
          "type": "address"
        }
      ],
      "stateMutability": "view",
      "type": "function"
    },
    {
      "inputs": [],
      "name": "renounceOwnership",
      "outputs": [],
      "stateMutability": "nonpayable",
      "type": "function"
    },
    {
      "inputs": [
        {
          "components": [
            {
              "components": [
                {
                  "internalType": "address",
                  "name": "delegate",
                  "type": "address"
                },
                {
                  "internalType": "bytes32",
                  "name": "authority",
                  "type": "bytes32"
                },
                {
                  "components": [
                    {
                      "internalType": "address",
                      "name": "enforcer",
                      "type": "address"
                    },
                    {
                      "internalType": "bytes",
                      "name": "terms",
                      "type": "bytes"
                    }
                  ],
                  "internalType": "struct Caveat[]",
                  "name": "caveats",
                  "type": "tuple[]"
                }
              ],
              "internalType": "struct Delegation",
              "name": "delegation",
              "type": "tuple"
            },
            {
              "internalType": "bytes",
              "name": "signature",
              "type": "bytes"
            }
          ],
          "internalType": "struct SignedDelegation",
          "name": "_signedDelegation",
          "type": "tuple"
        }
      ],
      "name": "revoke",
      "outputs": [],
      "stateMutability": "nonpayable",
      "type": "function"
    },
    {
      "inputs": [
        {
          "internalType": "address",
          "name": "newOwner",
          "type": "address"
        }
      ],
      "name": "transferOwnership",
      "outputs": [],
      "stateMutability": "nonpayable",
      "type": "function"
    },
    {
      "inputs": [
        {
          "internalType": "address",
          "name": "_token",
          "type": "address"
        },
        {
          "internalType": "address",
          "name": "_to",
          "type": "address"
        },
        {
          "internalType": "uint256",
          "name": "_amount",
          "type": "uint256"
        }
      ],
      "name": "transferProxy",
      "outputs": [
        {
          "internalType": "bool",
          "name": "",
          "type": "bool"
        }
      ],
      "stateMutability": "nonpayable",
      "type": "function"
    },
    {
      "inputs": [
        {
          "components": [
            {
              "components": [
                {
                  "internalType": "address",
                  "name": "delegate",
                  "type": "address"
                },
                {
                  "internalType": "bytes32",
                  "name": "authority",
                  "type": "bytes32"
                },
                {
                  "components": [
                    {
                      "internalType": "address",
                      "name": "enforcer",
                      "type": "address"
                    },
                    {
                      "internalType": "bytes",
                      "name": "terms",
                      "type": "bytes"
                    }
                  ],
                  "internalType": "struct Caveat[]",
                  "name": "caveats",
                  "type": "tuple[]"
                }
              ],
              "internalType": "struct Delegation",
              "name": "delegation",
              "type": "tuple"
            },
            {
              "internalType": "bytes",
              "name": "signature",
              "type": "bytes"
            }
          ],
          "internalType": "struct SignedDelegation",
          "name": "signedDelegation",
          "type": "tuple"
        }
      ],
      "name": "verifyDelegationSignature",
      "outputs": [
        {
          "internalType": "address",
          "name": "",
          "type": "address"
        }
      ],
      "stateMutability": "view",
      "type": "function"
    },
    {
      "inputs": [
        {
          "components": [
            {
              "components": [
                {
                  "internalType": "address",
                  "name": "delegate",
                  "type": "address"
                },
                {
                  "internalType": "bytes32",
                  "name": "authority",
                  "type": "bytes32"
                },
                {
                  "components": [
                    {
                      "internalType": "address",
                      "name": "enforcer",
                      "type": "address"
                    },
                    {
                      "internalType": "bytes",
                      "name": "terms",
                      "type": "bytes"
                    }
                  ],
                  "internalType": "struct Caveat[]",
                  "name": "caveats",
                  "type": "tuple[]"
                }
              ],
              "internalType": "struct Delegation",
              "name": "delegation",
              "type": "tuple"
            },
            {
              "internalType": "bytes",
              "name": "signature",
              "type": "bytes"
            }
          ],
          "internalType": "struct SignedDelegation",
          "name": "_signedDelegation",
          "type": "tuple"
        },
        {
          "internalType": "bytes32",
          "name": "_domainHash",
          "type": "bytes32"
        }
      ],
      "name": "verifyExternalDelegationSignature",
      "outputs": [
        {
          "internalType": "address",
          "name": "signer",
          "type": "address"
        }
      ],
      "stateMutability": "view",
      "type": "function"
    },
    {
      "inputs": [
        {
          "components": [
            {
              "components": [
                {
                  "components": [
                    {
                      "components": [
                        {
                          "internalType": "address",
                          "name": "to",
                          "type": "address"
                        },
                        {
                          "internalType": "uint256",
                          "name": "gasLimit",
                          "type": "uint256"
                        },
                        {
                          "internalType": "bytes",
                          "name": "data",
                          "type": "bytes"
                        }
                      ],
                      "internalType": "struct Transaction",
                      "name": "transaction",
                      "type": "tuple"
                    },
                    {
                      "components": [
                        {
                          "components": [
                            {
                              "internalType": "address",
                              "name": "delegate",
                              "type": "address"
                            },
                            {
                              "internalType": "bytes32",
                              "name": "authority",
                              "type": "bytes32"
                            },
                            {
                              "components": [
                                {
                                  "internalType": "address",
                                  "name": "enforcer",
                                  "type": "address"
                                },
                                {
                                  "internalType": "bytes",
                                  "name": "terms",
                                  "type": "bytes"
                                }
                              ],
                              "internalType": "struct Caveat[]",
                              "name": "caveats",
                              "type": "tuple[]"
                            }
                          ],
                          "internalType": "struct Delegation",
                          "name": "delegation",
                          "type": "tuple"
                        },
                        {
                          "internalType": "bytes",
                          "name": "signature",
                          "type": "bytes"
                        }
                      ],
                      "internalType": "struct SignedDelegation[]",
                      "name": "authority",
                      "type": "tuple[]"
                    }
                  ],
                  "internalType": "struct Invocation[]",
                  "name": "batch",
                  "type": "tuple[]"
                },
                {
                  "components": [
                    {
                      "internalType": "uint256",
                      "name": "nonce",
                      "type": "uint256"
                    },
                    {
                      "internalType": "uint256",
                      "name": "queue",
                      "type": "uint256"
                    }
                  ],
                  "internalType": "struct ReplayProtection",
                  "name": "replayProtection",
                  "type": "tuple"
                }
              ],
              "internalType": "struct Invocations",
              "name": "invocations",
              "type": "tuple"
            },
            {
              "internalType": "bytes",
              "name": "signature",
              "type": "bytes"
            }
          ],
          "internalType": "struct SignedInvocation",
          "name": "signedInvocation",
          "type": "tuple"
        }
      ],
      "name": "verifyInvocationSignature",
      "outputs": [
        {
          "internalType": "address",
          "name": "",
          "type": "address"
        }
      ],
      "stateMutability": "view",
      "type": "function"
    }
  ],
  "transactionHash": "0x956f7bd61743db02d70decac5c63c1c409d5fcce9b810fddc432d8ca0af91554",
  "args": [],
  "numDeployments": 1,
  "solcInputHash": "b3573cec598e845e7f08cf4d6506a1ae",
  "bytecode": "0x60a06040523480156200001157600080fd5b506040518060400160405280600c81526020016b22a921991826b0b730b3b2b960a11b815250604051806040016040528060018152602001603160f81b81525062000065828246306200008560201b60201c565b608052506200007f90506200007962000101565b6200015f565b620001b1565b8351602094850120835193850193909320604080517f8b73c3c69bb8fe3d512ecc4cf759cc79239f7b179b0ffacaa9a75d522b39400f8188015280820195909552606085019190915260808401929092526001600160a01b031660a0808401919091528151808403909101815260c09092019052805191012090565b60003033036200015957600080368080601f0160208091040260200160405190810160405280939291908181526020018383808284376000920191909152505050503601516001600160a01b031691506200015c9050565b50335b90565b600180546001600160a01b038381166001600160a01b0319831681179093556040519116919082907f8be0079c531659141344cd1fd0a4f28419497f9722a3daafe3b4186f6b6457e090600090a35050565b6080516124cf620001e26000396000818161044b0152818161096901528181610bb30152610e3d01526124cf6000f3fe608060405234801561001057600080fd5b50600436106101c45760003560e01c806389535803116100f9578063caced6c511610097578063e33150db11610071578063e33150db1461046d578063f2fde38b14610480578063f6037c9614610493578063fb8ad30d146104a657600080fd5b8063caced6c5146103a9578063d327c1eb146103bc578063dfe86ac51461044657600080fd5b806397182ed6116100d357806397182ed61461035d578063a2e01f7514610370578063a58ab45c14610383578063c57cbe4b1461039657600080fd5b806389535803146102ed5780638a04499e146103215780638da5cb5b1461034c57600080fd5b806360b6d76811610166578063715018a611610140578063715018a6146102aa5780637234eefe146102b4578063736f7ce7146102c75780637b577b58146102da57600080fd5b806360b6d768146102715780636c2b1253146102845780636f9658031461029757600080fd5b80633a481821116101a25780633a481821146102255780634733dc8f146102385780635c6d9f0c1461024b5780635cf1b24a1461025e57600080fd5b806308aaf6b0146101c95780632f52a2fd146101ef5780632fad7efc14610202575b600080fd5b6101dc6101d7366004611883565b6104b9565b6040519081526020015b60405180910390f35b6101dc6101fd3660046119c6565b610539565b610215610210366004611a45565b6105a4565b60405190151581526020016101e6565b6101dc610233366004611c9e565b61077f565b610215610246366004611cd2565b6107f6565b610215610259366004611a45565b6108f1565b6101dc61026c366004611d0e565b610907565b6101dc61027f366004611dcb565b610964565b6101dc610292366004611dff565b6109b4565b6101dc6102a5366004611e33565b610a11565b6102b2610a62565b005b6101dc6102c2366004611dcb565b610a76565b6101dc6102d5366004611e4f565b610ab4565b6101dc6102e8366004611e83565b610b1c565b6101dc6102fb366004611eb7565b6001600160a01b0391909116600090815260208181526040808320938352929052205490565b61033461032f366004611dff565b610b84565b6040516001600160a01b0390911681526020016101e6565b6001546001600160a01b0316610334565b6101dc61036b3660046119c6565b610bae565b6101dc61037e366004611ee1565b610bdb565b6101dc610391366004611f15565b610c47565b6102156103a4366004611dff565b610c8f565b6103346103b7366004611f98565b610cb4565b6101dc6103ca366004611fcc565b8351602094850120835193850193909320604080517f8b73c3c69bb8fe3d512ecc4cf759cc79239f7b179b0ffacaa9a75d522b39400f8188015280820195909552606085019190915260808401929092526001600160a01b031660a0808401919091528151808403909101815260c09092019052805191012090565b6101dc7f000000000000000000000000000000000000000000000000000000000000000081565b6102b261047b366004612049565b610cd6565b6102b261048e3660046120bc565b610db4565b6102b26104a13660046120d7565b610e2d565b6103346104b4366004612118565b610ee7565b6000807f80ad7e1b04ee6d994a125f4714ca0720908bd80ed16063ec8aee4b88e9253e2d836000015184602001518051906020012060405160200161051a939291909283526001600160a01b03919091166020830152604082015260600190565b60408051601f1981840301815291905280516020909101209392505050565b6000807f409f5114779a253e700d775d7845e6efc1e83685ac59868d2df3d4de51c7d621836000015184602001516105748660400151610b1c565b6040805160208101959095526001600160a01b03909316928401929092526060830152608082015260a00161051a565b6000805b8281101561077857368484838181106105c3576105c361214d565b90506020028101906105d59190612163565b905060005b6105e48280612183565b6105ee9080612199565b90508110156106e95760006106038380612183565b61060d9080612199565b8381811061061d5761061d61214d565b905060200281019061062f9190612163565b610638906121e2565b905060005b8160200151518110156106d457610670826020015182815181106106635761066361214d565b6020026020010151610c8f565b156106c25760405162461bcd60e51b815260206004820152601f60248201527f45524332304d616e616765723a7265766f6b65642d64656c65676174696f6e0060448201526064015b60405180910390fd5b806106cc81612204565b91505061063d565b505080806106e190612204565b9150506105da565b5060006106f86103b78361221d565b9050610744818787868181106107105761071061214d565b90506020028101906107229190612163565b61072c9080612183565b60200180360381019061073f9190611e33565b610f07565b6107616107518380612183565b61075b9080612199565b83610fc1565b93505050808061077090612204565b9150506105a8565b5092915050565b6000606060005b83518110156107e757816107b28583815181106107a5576107a561214d565b6020026020010151610907565b6040516020016107c3929190612259565b604051602081830303815290604052915080806107df90612204565b915050610786565b50805160209091012092915050565b60003330146108595760405162461bcd60e51b815260206004820152602960248201527f45524332304d616e616765723a7472616e7366657250726f78792d6e6f742d616044820152681d5d1a1bdc9a5e995960ba1b60648201526084016106b9565b836001600160a01b03166323b872dd6108706113d5565b6040516001600160e01b031960e084901b1681526001600160a01b0391821660048201529086166024820152604481018590526064016020604051808303816000875af11580156108c5573d6000803e3d6000fd5b505050506040513d601f19601f820116820180604052508101906108e9919061227b565b949350505050565b60006108fe838333610fc1565b90505b92915050565b6000807fd97dd99b404d177890f06a8f0fc8e5ed0333fb2ebb6684360709066e8984f5946109388460000151610bdb565b6109458560200151610ab4565b604080516020810194909452830191909152606082015260800161051a565b6000807f000000000000000000000000000000000000000000000000000000000000000061099184610a76565b60405161190160f01b60208201526022810192909252604282015260620161051a565b6000807f3c36a06e1d288b0f94f565588317a46ad11bc3c96992109f9a2365a2737259a76109e58460000151610539565b60208086015180519082012060405161051a949392019283526020830191909152604082015260600190565b6000807fe8d3d963b33868fb116316bc3fd55e8f49123f30e4418f71e140d54b7cd3b2b98360000151846020015160405160200161051a939291909283526020830191909152604082015260600190565b610a6a611431565b610a7460006114aa565b565b6000807f08c69a206c06f5334b35ceb1186181a713b21aff02cf66285f375084fbef2eb8610aa7846000015161077f565b6109458560200151610a11565b6000606060005b83518110156107e75781610ae7858381518110610ada57610ada61214d565b60200260200101516109b4565b604051602001610af8929190612259565b60405160208183030381529060405291508080610b1490612204565b915050610abb565b6000606060005b83518110156107e75781610b4f858381518110610b4257610b4261214d565b60200260200101516104b9565b604051602001610b60929190612259565b60405160208183030381529060405291508080610b7c90612204565b915050610b23565b805160009081610b9382610bae565b90506000610ba58286602001516114fc565b95945050505050565b6000807f000000000000000000000000000000000000000000000000000000000000000061099184610539565b6000807fb16dfdb3b8fa033fe30ac976cd4a50ad256b6811c80d90fcd0b323eec190047d8360000151846020015185604001518051906020012060405160200161051a94939291909384526001600160a01b039290921660208401526040830152606082015260800190565b600081610c5384610539565b60405161190160f01b60208201526022810192909252604282015260620160405160208183030381529060405280519060200120905092915050565b600080610c9b836109b4565b60009081526002602052604090205460ff169392505050565b600080610cc48360000151610964565b905060006108e98285602001516114fc565b333014610d255760405162461bcd60e51b815260206004820152601b60248201527f45524332304d616e616765723a696e76616c69642d73656e646572000000000060448201526064016106b9565b60405163d505accf60e01b81526001600160a01b038781166004830152306024830152604482018790526064820186905260ff8516608483015260a4820184905260c4820183905288169063d505accf9060e401600060405180830381600087803b158015610d9357600080fd5b505af1158015610da7573d6000803e3d6000fd5b5050505050505050505050565b610dbc611431565b6001600160a01b038116610e215760405162461bcd60e51b815260206004820152602660248201527f4f776e61626c653a206e6577206f776e657220697320746865207a65726f206160448201526564647265737360d01b60648201526084016106b9565b610e2a816114aa565b50565b6000610e61610e3b8361229d565b7f0000000000000000000000000000000000000000000000000000000000000000610ee7565b9050336001600160a01b03821614610ebb5760405162461bcd60e51b815260206004820181905260248201527f45524332304d616e616765723a756e617574686f72697a65642d7265766f6b6560448201526064016106b9565b6000610ec96102928461229d565b6000908152600260205260409020805460ff19166001179055505050565b815160009081610ef78285610c47565b9050610ba58186602001516114fc565b60208082015182516001600160a01b038516600090815280845260408082208483529094529290922054909190610f3f9060016122a9565b8114610f995760405162461bcd60e51b815260206004820152602360248201527f44656c6567617461626c65436f72653a6e6f6e6365322d6f75742d6f662d6f726044820152623232b960e91b60648201526084016106b9565b6001600160a01b03909316600090815260208181526040808320938352929052209190915550565b6000805b838110156113cd576000858583818110610fe157610fe161214d565b9050602002810190610ff39190612163565b610ffc906121e2565b90506000808260200151516000036110145750849050805b6000805b8460200151518110156112af5760008560200151828151811061103d5761103d61214d565b60200260200101519050600061105282610b84565b905082600003611063578095508594505b846001600160a01b0316816001600160a01b0316146110d65760405162461bcd60e51b815260206004820152602960248201527f44656c6567617461626c65436f72653a696e76616c69642d64656c656761746960448201526837b716b9b4b3b732b960b91b60648201526084016106b9565b8151602081015185146111455760405162461bcd60e51b815260206004820152603160248201527f44656c6567617461626c65436f72653a696e76616c69642d617574686f726974604482015270792d64656c65676174696f6e2d6c696e6b60781b60648201526084016106b9565b6000611150846109b4565b905060005b8260400151518161ffff16101561129257600083604001518261ffff16815181106111825761118261214d565b60200260200101516000015190506000816001600160a01b0316635068de4c86604001518561ffff16815181106111bb576111bb61214d565b6020026020010151602001518e60000151876040518463ffffffff1660e01b81526004016111eb939291906122ed565b6020604051808303816000875af115801561120a573d6000803e3d6000fd5b505050506040513d601f19601f8201168201806040525081019061122e919061227b565b90508061127d5760405162461bcd60e51b815260206004820152601f60248201527f44656c6567617461626c65436f72653a6361766561742d72656a65637465640060448201526064016106b9565b5050808061128a90612349565b915050611155565b509051955093508291506112a7905081612204565b915050611018565b50866001600160a01b0316826001600160a01b0316146113115760405162461bcd60e51b815260206004820181905260248201527f44656c6567617461626c65436f72653a696e76616c69642d64656c656761746560448201526064016106b9565b835180516001600160a01b0316301461137e5760405162461bcd60e51b815260206004820152602960248201527f44656c6567617461626c65436f72653a696e76616c69642d696e766f636174696044820152681bdb8b5d185c99d95d60ba1b60648201526084016106b9565b611396816000015182604001518360200151876115d3565b9650866113b55760405162461bcd60e51b81526004016106b99061236a565b505050505080806113c590612204565b915050610fc5565b509392505050565b600030330361142b57600080368080601f0160208091040260200160405190810160405280939291908181526020018383808284376000920191909152505050503601516001600160a01b0316915061142e9050565b50335b90565b6114396113d5565b6001600160a01b03166114546001546001600160a01b031690565b6001600160a01b031614610a745760405162461bcd60e51b815260206004820181905260248201527f4f776e61626c653a2063616c6c6572206973206e6f7420746865206f776e657260448201526064016106b9565b600180546001600160a01b038381166001600160a01b0319831681179093556040519116919082907f8be0079c531659141344cd1fd0a4f28419497f9722a3daafe3b4186f6b6457e090600090a35050565b60008060008084516041146115175760009350505050610901565b50505060208201516040830151606084015160001a601b81101561154357611540601b826123ab565b90505b8060ff16601b1415801561155b57508060ff16601c14155b1561156c5760009350505050610901565b60408051600081526020810180835288905260ff831691810191909152606081018490526080810183905260019060a0016020604051602081039080840390855afa1580156115bf573d6000803e3d6000fd5b505050602060405103519350505050610901565b60008084836040516020016115e99291906123d0565b60405160208183030381529060405290506060866001600160a01b031685836040516116159190612407565b60006040518083038160008787f1925050503d8060008114611653576040519150601f19603f3d011682016040523d82523d6000602084013e611658565b606091505b509093509050826116a957805115611691576000611675826116b3565b90508060405162461bcd60e51b81526004016106b99190612419565b60405162461bcd60e51b81526004016106b99061236a565b5050949350505050565b805160609060448110156116d7575050604080516020810190915260008152919050565b6004830180516003198301825290936116f9908381016020019060240161242c565b93525090919050565b634e487b7160e01b600052604160045260246000fd5b604080519081016001600160401b038111828210171561173a5761173a611702565b60405290565b604051606081016001600160401b038111828210171561173a5761173a611702565b604051601f8201601f191681016001600160401b038111828210171561178a5761178a611702565b604052919050565b80356001600160a01b03811681146117a957600080fd5b919050565b60006001600160401b038211156117c7576117c7611702565b50601f01601f191660200190565b600082601f8301126117e657600080fd5b81356117f96117f4826117ae565b611762565b81815284602083860101111561180e57600080fd5b816020850160208301376000918101602001919091529392505050565b60006040828403121561183d57600080fd5b611845611718565b905061185082611792565b815260208201356001600160401b0381111561186b57600080fd5b611877848285016117d5565b60208301525092915050565b60006020828403121561189557600080fd5b81356001600160401b038111156118ab57600080fd5b6108e98482850161182b565b60006001600160401b038211156118d0576118d0611702565b5060051b60200190565b600082601f8301126118eb57600080fd5b813560206118fb6117f4836118b7565b82815260059290921b8401810191818101908684111561191a57600080fd5b8286015b848110156119595780356001600160401b0381111561193d5760008081fd5b61194b8986838b010161182b565b84525091830191830161191e565b509695505050505050565b60006060828403121561197657600080fd5b61197e611740565b905061198982611792565b81526020820135602082015260408201356001600160401b038111156119ae57600080fd5b6119ba848285016118da565b60408301525092915050565b6000602082840312156119d857600080fd5b81356001600160401b038111156119ee57600080fd5b6108e984828501611964565b60008083601f840112611a0c57600080fd5b5081356001600160401b03811115611a2357600080fd5b6020830191508360208260051b8501011115611a3e57600080fd5b9250929050565b60008060208385031215611a5857600080fd5b82356001600160401b03811115611a6e57600080fd5b611a7a858286016119fa565b90969095509350505050565b600060608284031215611a9857600080fd5b611aa0611740565b9050611aab82611792565b81526020820135602082015260408201356001600160401b03811115611ad057600080fd5b6119ba848285016117d5565b600060408284031215611aee57600080fd5b611af6611718565b905081356001600160401b0380821115611b0f57600080fd5b611b1b85838601611964565b83526020840135915080821115611b3157600080fd5b50611877848285016117d5565b600082601f830112611b4f57600080fd5b81356020611b5f6117f4836118b7565b82815260059290921b84018101918181019086841115611b7e57600080fd5b8286015b848110156119595780356001600160401b03811115611ba15760008081fd5b611baf8986838b0101611adc565b845250918301918301611b82565b600060408284031215611bcf57600080fd5b611bd7611718565b905081356001600160401b0380821115611bf057600080fd5b611bfc85838601611a86565b83526020840135915080821115611c1257600080fd5b5061187784828501611b3e565b600082601f830112611c3057600080fd5b81356020611c406117f4836118b7565b82815260059290921b84018101918181019086841115611c5f57600080fd5b8286015b848110156119595780356001600160401b03811115611c825760008081fd5b611c908986838b0101611bbd565b845250918301918301611c63565b600060208284031215611cb057600080fd5b81356001600160401b03811115611cc657600080fd5b6108e984828501611c1f565b600080600060608486031215611ce757600080fd5b611cf084611792565b9250611cfe60208501611792565b9150604084013590509250925092565b600060208284031215611d2057600080fd5b81356001600160401b03811115611d3657600080fd5b6108e984828501611bbd565b600060408284031215611d5457600080fd5b611d5c611718565b9050813581526020820135602082015292915050565b600060608284031215611d8457600080fd5b611d8c611718565b905081356001600160401b03811115611da457600080fd5b611db084828501611c1f565b825250611dc08360208401611d42565b602082015292915050565b600060208284031215611ddd57600080fd5b81356001600160401b03811115611df357600080fd5b6108e984828501611d72565b600060208284031215611e1157600080fd5b81356001600160401b03811115611e2757600080fd5b6108e984828501611adc565b600060408284031215611e4557600080fd5b6108fe8383611d42565b600060208284031215611e6157600080fd5b81356001600160401b03811115611e7757600080fd5b6108e984828501611b3e565b600060208284031215611e9557600080fd5b81356001600160401b03811115611eab57600080fd5b6108e9848285016118da565b60008060408385031215611eca57600080fd5b611ed383611792565b946020939093013593505050565b600060208284031215611ef357600080fd5b81356001600160401b03811115611f0957600080fd5b6108e984828501611a86565b60008060408385031215611f2857600080fd5b82356001600160401b03811115611f3e57600080fd5b611f4a85828601611964565b95602094909401359450505050565b600060408284031215611f6b57600080fd5b611f73611718565b905081356001600160401b0380821115611f8c57600080fd5b611b1b85838601611d72565b600060208284031215611faa57600080fd5b81356001600160401b03811115611fc057600080fd5b6108e984828501611f59565b60008060008060808587031215611fe257600080fd5b84356001600160401b0380821115611ff957600080fd5b612005888389016117d5565b9550602087013591508082111561201b57600080fd5b50612028878288016117d5565b9350506040850135915061203e60608601611792565b905092959194509250565b600080600080600080600060e0888a03121561206457600080fd5b61206d88611792565b965061207b60208901611792565b95506040880135945060608801359350608088013560ff8116811461209f57600080fd5b9699959850939692959460a0840135945060c09093013592915050565b6000602082840312156120ce57600080fd5b6108fe82611792565b6000602082840312156120e957600080fd5b81356001600160401b038111156120ff57600080fd5b82016040818503121561211157600080fd5b9392505050565b6000806040838503121561212b57600080fd5b82356001600160401b0381111561214157600080fd5b611f4a85828601611adc565b634e487b7160e01b600052603260045260246000fd5b60008235603e1983360301811261217957600080fd5b9190910192915050565b60008235605e1983360301811261217957600080fd5b6000808335601e198436030181126121b057600080fd5b8301803591506001600160401b038211156121ca57600080fd5b6020019150600581901b3603821315611a3e57600080fd5b60006109013683611bbd565b634e487b7160e01b600052601160045260246000fd5b600060018201612216576122166121ee565b5060010190565b60006109013683611f59565b60005b8381101561224457818101518382015260200161222c565b83811115612253576000848401525b50505050565b6000835161226b818460208801612229565b9190910191825250602001919050565b60006020828403121561228d57600080fd5b8151801515811461211157600080fd5b60006109013683611adc565b600082198211156122bc576122bc6121ee565b500190565b600081518084526122d9816020860160208601612229565b601f01601f19169290920160200192915050565b60608152600061230060608301866122c1565b828103602084015260018060a01b0385511681526020850151602082015260408501516060604083015261233760608301826122c1565b92505050826040830152949350505050565b600061ffff808316818103612360576123606121ee565b6001019392505050565b60208082526021908201527f44656c6567617461626c65436f72653a3a657865637574696f6e2d6661696c656040820152601960fa1b606082015260800190565b600060ff821660ff84168060ff038211156123c8576123c86121ee565b019392505050565b600083516123e2818460208801612229565b60609390931b6bffffffffffffffffffffffff19169190920190815260140192915050565b60008251612179818460208701612229565b6020815260006108fe60208301846122c1565b60006020828403121561243e57600080fd5b81516001600160401b0381111561245457600080fd5b8201601f8101841361246557600080fd5b80516124736117f4826117ae565b81815285602083850101111561248857600080fd5b610ba582602083016020860161222956fea26469706673582212200ef9e3b4b6685790160e2b50b09af0b5c167206f071f286730c7c16b9012512864736f6c634300080f0033",
  "devdoc": {
    "author": "McOso",
    "kind": "dev",
    "methods": {
      "contractInvoke(((address,uint256,bytes),((address,bytes32,(address,bytes)[]),bytes)[])[])": {
        "params": {
          "batch": "Invocation[] - The batch of invocations to process."
        },
        "returns": {
          "_0": "success bool - Whether the batch of invocations was successfully processed."
        }
      },
      "getDelegationTypedDataHash((address,bytes32,(address,bytes)[]))": {
        "params": {
          "delegation": "Delegation - The delegation to get the type of"
        },
        "returns": {
          "_0": "bytes32 - The type of the delegation"
        }
      },
      "getInvocationsTypedDataHash((((address,uint256,bytes),((address,bytes32,(address,bytes)[]),bytes)[])[],(uint256,uint256)))": {
        "params": {
          "invocations": "Invocations"
        },
        "returns": {
          "_0": "bytes32 - The type of the Invocations"
        }
      },
      "invoke(((((address,uint256,bytes),((address,bytes32,(address,bytes)[]),bytes)[])[],(uint256,uint256)),bytes)[])": {
        "params": {
          "signedInvocations": "SignedInvocation[] - The batch of signed invocations to process."
        },
        "returns": {
          "success": "bool - Whether the batch of invocations was successfully processed."
        }
      },
      "owner()": {
        "details": "Returns the address of the current owner."
      },
      "renounceOwnership()": {
        "details": "Leaves the contract without owner. It will not be possible to call `onlyOwner` functions anymore. Can only be called by the current owner. NOTE: Renouncing ownership will leave the contract without an owner, thereby removing any functionality that is only available to the owner."
      },
      "transferOwnership(address)": {
        "details": "Transfers ownership of the contract to a new account (`newOwner`). Can only be called by the current owner."
      },
      "verifyInvocationSignature(((((address,uint256,bytes),((address,bytes32,(address,bytes)[]),bytes)[])[],(uint256,uint256)),bytes))": {
        "params": {
          "signedInvocation": "- The signed invocation to verify"
        },
        "returns": {
          "_0": "address - The address of the account authorizing this invocation to act on its behalf."
        }
      }
    },
    "title": "ERC20Manager",
    "version": 1
  },
  "userdoc": {
    "kind": "user",
    "methods": {
      "contractInvoke(((address,uint256,bytes),((address,bytes32,(address,bytes)[]),bytes)[])[])": {
        "notice": "Allows a smart contract to submit a batch of invocations for processing, allowing itself to be the delegate."
      },
      "domainHash()": {
        "notice": "The hash of the domain separator used in the EIP712 domain hash."
      },
      "getDelegationTypedDataHash((address,bytes32,(address,bytes)[]))": {
        "notice": "Returns the typehash for this contract's delegation signatures."
      },
      "getInvocationsTypedDataHash((((address,uint256,bytes),((address,bytes32,(address,bytes)[]),bytes)[])[],(uint256,uint256)))": {
        "notice": "Returns the typehash for this contract's invocation signatures."
      },
      "invoke(((((address,uint256,bytes),((address,bytes32,(address,bytes)[]),bytes)[])[],(uint256,uint256)),bytes)[])": {
        "notice": "Allows anyone to submit a batch of signed invocations for processing."
      },
      "verifyInvocationSignature(((((address,uint256,bytes),((address,bytes32,(address,bytes)[]),bytes)[])[],(uint256,uint256)),bytes))": {
        "notice": "Verifies that the given invocation is valid."
      }
    },
    "notice": "Manages the erc20 delegation",
    "version": 1
  },
  "storageLayout": {
    "storage": [
      {
        "astId": 1140,
        "contract": "contracts/ERC20Manager.sol:ERC20Manager",
        "label": "multiNonce",
        "offset": 0,
        "slot": "0",
        "type": "t_mapping(t_address,t_mapping(t_uint256,t_uint256))"
      },
      {
        "astId": 609,
        "contract": "contracts/ERC20Manager.sol:ERC20Manager",
        "label": "_owner",
        "offset": 0,
        "slot": "1",
        "type": "t_address"
      },
      {
        "astId": 1577,
        "contract": "contracts/ERC20Manager.sol:ERC20Manager",
        "label": "revokedMap",
        "offset": 0,
        "slot": "2",
        "type": "t_mapping(t_bytes32,t_bool)"
      }
    ],
    "types": {
      "t_address": {
        "encoding": "inplace",
        "label": "address",
        "numberOfBytes": "20"
      },
      "t_bool": {
        "encoding": "inplace",
        "label": "bool",
        "numberOfBytes": "1"
      },
      "t_bytes32": {
        "encoding": "inplace",
        "label": "bytes32",
        "numberOfBytes": "32"
      },
      "t_mapping(t_address,t_mapping(t_uint256,t_uint256))": {
        "encoding": "mapping",
        "key": "t_address",
        "label": "mapping(address => mapping(uint256 => uint256))",
        "numberOfBytes": "32",
        "value": "t_mapping(t_uint256,t_uint256)"
      },
      "t_mapping(t_bytes32,t_bool)": {
        "encoding": "mapping",
        "key": "t_bytes32",
        "label": "mapping(bytes32 => bool)",
        "numberOfBytes": "32",
        "value": "t_bool"
      },
      "t_mapping(t_uint256,t_uint256)": {
        "encoding": "mapping",
        "key": "t_uint256",
        "label": "mapping(uint256 => uint256)",
        "numberOfBytes": "32",
        "value": "t_uint256"
      },
      "t_uint256": {
        "encoding": "inplace",
        "label": "uint256",
        "numberOfBytes": "32"
      }
    }
  }
}